:020000040800F2
:1000000000070020F5040008652F00081D2F0008D8
:10001000452F00081D2F00083D2F0008F704000899
:10002000F7040008F7040008F7040008453F00083B
:10003000F7040008F7040008F7040008F7040008B4
:10004000F7040008F7040008F7040008F7040008A4
:10005000F7040008F704000891520008B95200089C
:10006000E15200080953000831530008F704000862
:10007000F7040008F7040008F7040008F704000874
:10008000F7040008F7040008F7040008F704000864
:10009000F7040008FD2E00080D2F00085953000832
:1000A000F7040008F7040008F7040008F704000844
:1000B00041540008F7040008F7040008F70400089A
:1000C000F7040008F7040008F7040008F704000824
:1000D000F7040008F7040008F70400082D5400088E
:1000E000BD530008F7040008F7040008F7040008EF
:1000F000F7040008F7040008F7040008F7040008F4
:10010000F7040008F7040008F7040008F7040008E3
:10011000F7040008F7040008F7040008F7040008D3
:10012000F7040008F7040008F7040008F7040008C3
:10013000F7040008F7040008F7040008F7040008B3
:10014000F7040008F7040008F7040008F7040008A3
:10015000F7040008F7040008F7040008F704000893
:10016000F7040008F7040008F7040008F704000883
:10017000F7040008F7040008F7040008F704000873
:10018000F7040008F7040008F7040008F704000863
:10019000F7040008F7040008F7040008F704000853
:1001A000F7040008F7040008F7040008F704000843
:1001B000F7040008F7040008F7040008F704000833
:1001C000F7040008F7040008F7040008F704000823
:1001D000F7040008F7040008F7040008F704000813
:1001E000ED17000800000000000000000000000003
:1001F00053B94AB9002908BF00281CBF4FF0FF318E
:100200004FF0FF3000F074B9ADF1080C6DE904CE89
:1002100000F006F8DDF804E0DDE9022304B07047E1
:100220002DE9F047089D04468E46002B4DD18A42A9
:10023000944669D9B2FA82F252B101FA02F3C2F1DC
:10024000200120FA01F10CFA02FC41EA030E94406D
:100250004FEA1C48210CBEFBF8F61FFA8CF708FB8E
:1002600016E341EA034306FB07F199420AD91CEB66
:10027000030306F1FF3080F01F81994240F21C8198
:10028000023E63445B1AA4B2B3FBF8F008FB1033E0
:1002900044EA034400FB07F7A7420AD91CEB040415
:1002A00000F1FF3380F00A81A74240F207816444E5
:1002B000023840EA0640E41B00261DB1D44000236A
:1002C000C5E900433146BDE8F0878B4209D9002DCE
:1002D00000F0EF800026C5E9000130463146BDE858
:1002E000F087B3FA83F6002E4AD18B4202D38242C2
:1002F00000F2F980841A61EB030301209E46002D71
:10030000E0D0C5E9004EDDE702B9FFDEB2FA82F2C5
:10031000002A40F09280A1EB0C014FEA1C471FFA23
:100320008CFE0126200CB1FBF7F307FB131140EA0A
:1003300001410EFB03F0884208D91CEB010103F1D7
:10034000FF3802D2884200F2CB804346091AA4B299
:10035000B1FBF7F007FB101144EA01440EFB00FE6D
:10036000A64508D91CEB040400F1FF3102D2A645D2
:1003700000F2BB800846A4EB0E0440EA03409CE771
:10038000C6F12007B34022FA07FC4CEA030C20FA1E
:1003900007F401FA06F31C43F9404FEA1C4900FA3E
:1003A00006F3B1FBF9F8200C1FFA8CFE09FB1811BB
:1003B00040EA014108FB0EF0884202FA06F20BD92E
:1003C0001CEB010108F1FF3A80F08880884240F27E
:1003D0008580A8F102086144091AA4B2B1FBF9F0C2
:1003E00009FB101144EA014100FB0EFE8E4508D9BD
:1003F0001CEB010100F1FF346CD28E456AD9023842
:10040000614440EA0840A0FB0294A1EB0E01A14226
:10041000C846A64656D353D05DB1B3EB080261EB94
:100420000E0101FA07F722FA06F3F1401F43C5E96E
:10043000007100263146BDE8F087C2F12003D840A4
:100440000CFA02FC21FA03F3914001434FEA1C47E6
:100450001FFA8CFEB3FBF7F007FB10360B0C43EAD8
:10046000064300FB0EF69E4204FA02F408D91CEB88
:10047000030300F1FF382FD29E422DD90238634486
:100480009B1B89B2B3FBF7F607FB163341EA034126
:1004900006FB0EF38B4208D91CEB010106F1FF3875
:1004A00016D28B4214D9023E6144C91A46EA00466C
:1004B00038E72E46284605E70646E3E61846F8E6FE
:1004C0004B45A9D2B9EB020864EB0C0E0138A3E747
:1004D0004646EAE7204694E74046D1E7D0467BE728
:1004E000023B614432E7304609E76444023842E7A0
:1004F000704700BF02E000F000F8FEE772B6374830
:1005000080F30888364880F3098836483649086001
:1005100040F20000CCF200004EF63471CEF2000141
:100520000860BFF34F8FBFF36F8F40F20000C0F23F
:10053000F0004EF68851CEF200010860BFF34F8FF5
:10054000BFF36F8F4FF00000E1EE100A4EF63C71E2
:10055000CEF200010860062080F31488BFF36F8F8D
:1005600004F0C6FC04F058FD4FF055301F491B4AFB
:1005700091423CBF41F8040BFAE71D49184A9142E9
:100580003CBF41F8040BFAE71A491B4A1B4B9A423D
:100590003EBF51F8040B42F8040BF8E7002018495D
:1005A000184A91423CBF41F8040BFAE704F0A4FC5E
:1005B00004F078FD144C154DAC4203DA54F8041BDA
:1005C0008847F9E700F042F8114C124DAC4203DACB
:1005D00054F8041B8847F9E704F08CBC000700209E
:1005E000002300200000000808ED00E000010020CA
:1005F0000007002048570008002300208C2300201B
:1006000090230020D0540020E0010008E4010008FD
:10061000E4010008E40100082DE9F04F2DED108AF7
:10062000C1F80CD0C3689D46BDEC108ABDE8F08FC0
:10063000002383F311882846A047002004F0E8F83F
:10064000FEE704F04BF800DFFEE70000F8B501F02C
:10065000DFF804F0EFFB074604F040FC0546B8BBAA
:10066000204B9F4234D001339F4234D01E4B27F0A1
:10067000FF029A4232D1F8B200F00AFF2E4642F24F
:10068000107400F00BFF08B10024264601F034FC82
:1006900020B1032000F07CF80024264635B1134B2E
:1006A0009F4203D004F012FC00242646002004F0F0
:1006B000CBFB0EB100F082F801F004FA00F020FF4D
:1006C00001F004F9204600F0D1F800F077F8F9E7DE
:1006D0002E460024D5E704460126D2E7064640F61A
:1006E000C414CEE7010007B0000008B0263A09B0F4
:1006F00008B501F0B7F8A0F120035842584108BDF1
:1007000007B541F21203022101A8ADF8043001F04F
:10071000C7F803B05DF804FB38B5302383F31188C4
:10072000174803680BB104F031F9164A1448002346
:100730004FF47A7104F020F9002383F31188124CEE
:10074000236813B12368013B2360636813B16368B6
:10075000013B63600D4D2B7833B963687BB9022090
:1007600001F046F9322363602B78032B07D16368CD
:100770002BB9022001F03CF94FF47A73636038BD65
:100780009023002019070008B0240020A82300208F
:10079000084B187003280CD8DFE800F008050208A1
:1007A000022001F023B9022001F01EB9024B002201
:1007B0005A607047A8230020B024002010B501F033
:1007C0009BFB30B1234B03221A70234B00225A604B
:1007D00010BD224B224A1C4619680131F8D004335F
:1007E0009342F9D16268A242F2D31E4B9B6803F197
:1007F000006303F510439A42EAD204F039FB04F097
:100800004BFB002001F07CF80220FFF7C1FF164BE4
:100810009A6D00229A65996F9A67996FD96DDA651A
:10082000D96FDA67D96F196E1A66D3F88010C3F8DA
:100830008020D3F8803072B64FF0E0233021C3F827
:10084000084DD4E9003281F311889D4683F308886E
:100850001047BDE7A8230020B02400200090000826
:100860002090000800230020001002402DE9F04FE6
:1008700093B0AC4B00902022FF210AA89D6801F0A4
:10088000CBF8A94A1378A3B9A848012103601170D5
:10089000302383F3118803680BB104F077F8A44A7E
:1008A000A24800234FF47A7104F066F8002383F322
:1008B0001188009B13B19F4B009A1A609E4A009CBE
:1008C0001378032B1EBF002313709A4A4FF0000ABF
:1008D00018BF5360D3465646D146012001F086F832
:1008E00024B1944B1B68002B00F01582002000F00F
:1008F000B9FF0390039B002B01DA00F049FE039B34
:10090000002BEDDB012001F06FF8039B213B162B40
:10091000E3D801A252F823F0750900089D090008E8
:10092000310A0008DB080008DB080008DB080008C3
:10093000BB0A00088B0C0008A50B0008070C000878
:100940002F0C0008550C0008DB080008670C000895
:10095000DB080008D90C0008150A0008DB080008AD
:100960001D0D000881090008150A0008DB080008B1
:10097000070C00080220FFF7BBFE002840F0F581BD
:10098000009B0221BAF1000F08BF1C4605A841F2E6
:100990001233ADF8143000F083FF9EE74FF47A7005
:1009A00000F060FF071EEBDB0220FFF7A1FE00282E
:1009B000E6D0013F052F00F2DA81DFE807F0030AF5
:1009C0000D10133605230593042105A800F068FFD8
:1009D00017E054480421F9E758480421F6E758483D
:1009E0000421F3E74FF01C08404600F08BFF08F1AC
:1009F00004080590042105A800F052FFB8F12C0F5F
:100A0000F2D1012000FA07F747EA0B0B5FFA8BFBE4
:100A10004FF0000901F04CF826B10BF00B030B2B43
:100A200008BF0024FFF76CFE57E746480421CDE7D6
:100A3000002EA5D00BF00B030B2BA1D10220FFF74A
:100A400057FE074600289BD0012000F059FF0220E6
:100A5000FFF79EFE00261FFA86F8404600F060FF72
:100A6000044690B10021404600F072FF0136002894
:100A7000F1D1BA46044641F21213022105A8ADF89D
:100A800014303E4600F00CFF27E70120FFF780FE00
:100A90002546244B9B68AB4207D9284600F032FF1D
:100AA000013040F067810435F3E7234B00251D70CA
:100AB000204BBA465D603E46ACE7002E3FF460AF87
:100AC0000BF00B030B2B7FF45BAF0220FFF760FEF4
:100AD000322000F0C7FEB0F10008FFF651AF18F069
:100AE00003077FF44DAF0F4A926808EB050393426A
:100AF0003FF646AFB8F5807F3FF742AF124B019308
:100B0000B84523DD4FF47A7000F0ACFE0390039AF1
:100B1000002AFFF635AF019B039A03F8012B01373A
:100B2000EDE700BF00230020AC240020902300202C
:100B300019070008B0240020A82300200423002067
:100B4000082300200C230020AC230020C820FFF73E
:100B5000CFFD074600283FF413AF1F2D11D8C5F174
:100B6000200242450AAB25F0030028BF42468349D4
:100B70000192184400F03EFF019A8048FF2100F0E6
:100B80004BFF4FEAA8037D490193C8F3870228462B
:100B900000F04AFF064600283FF46DAF019B05EBCD
:100BA000830537E70220FFF7A3FD00283FF4E8AEF6
:100BB00000F0E0FE00283FF4E3AE0027B846704B9B
:100BC0009B68BB4218D91F2F11D80A9B01330ED046
:100BD00027F0030312AA134453F8203C0593404620
:100BE000042205A901F072F904378046E7E7384688
:100BF00000F088FE0590F2E7CDF81480042105A8E6
:100C000000F04EFE06E70023642104A8049300F0E0
:100C10003DFE00287FF4B4AE0220FFF769FD0028F6
:100C20003FF4AEAE049800F09BFE0590E6E700238B
:100C3000642104A8049300F029FE00287FF4A0AEEC
:100C40000220FFF755FD00283FF49AAE049800F00B
:100C500089FEEAE70220FFF74BFD00283FF490AE43
:100C600000F098FEE1E70220FFF742FD00283FF484
:100C700087AE05A9142000F093FE042107460490D6
:100C800004A800F00DFE3946B9E7322000F0EAFD75
:100C9000071EFFF675AEBB077FF472AE384A926846
:100CA00007EB090393423FF66BAE0220FFF720FDEE
:100CB00000283FF465AE27F003074F44B9453FF4E1
:100CC000A9AE484600F01EFE0421059005A800F0DC
:100CD000E7FD09F10409F1E74FF47A70FFF708FD29
:100CE00000283FF44DAE00F045FE002844D00A9B9A
:100CF00001330BD008220AA9002000F095FE00283D
:100D00003AD02022FF210AA800F086FEFFF7F8FC67
:100D10001C4803F083FD13B0BDE8F08F002E3FF4B4
:100D20002FAE0BF00B030B2B7FF42AAE00236421B4
:100D300005A8059300F0AAFD074600287FF420AE21
:100D40000220FFF7D5FC804600283FF419AEFFF7DC
:100D5000D7FC41F2883003F061FD059800F0BEFE3B
:100D6000464600F0A5FE3C46B7E5064652E64FF083
:100D7000000905E6BA467EE637467CE6AC2300204D
:100D800000230020A0860100094A136849F2690087
:100D900099B21B0C00FB01331360064B186844F238
:100DA000506182B2000C01FB0200186080B27047F3
:100DB000142300201023002010B500211022044627
:100DC00000F02AFE034B03CB206061601868A0602E
:100DD00010BD00BF9075FF1F2DE9F041ADF54E7DB0
:100DE0000DF134086CAC40F2751207460D460EA8A2
:100DF0000021C8F8001000F00FFE4FF4C47200216B
:100E0000204600F009FE02F0B5F8254B4FF47A7247
:100E1000B0FBF2F0186093E80700022384E80700B3
:100E20000DF5E9702382FFF7C7FF41F604531D4912
:100E3000238406A804F0A0FB1A2384F832310DF2B3
:100E4000E32206AB0DF1300C1E4603CE6645106062
:100E50005160334602F10802F6D1338813804146CF
:100E60000122204600F054FE00230393AB7E029340
:100E700005F11903019380B20123CDE904800093A9
:100E8000E97E05A3D3E90023384602F031FC0DF5D5
:100E90004E7DBDE8F08100BF9E6AC421818A46EE86
:100EA000B8240020885500082DE9F0412C4C237A05
:100EB000DAB080460D465BBB27A9284600F038FF14
:100EC0000746002842D19DF89D60C82E3ED80146B5
:100ED0004FF4A662204600F09FFD4FF48073C4F8E3
:100EE000F8314FF40073C4F80C334FF44073C4F876
:100EF000203432460DF19E0104F1090000F07AFD24
:100F000026449DF89C30777223720BB9EB7E2372D6
:100F10008122002106AC27A800F07EFD0122214697
:100F200027A800F041FF00230393AB7E029305F155
:100F3000190380B201932823CDE904400093E97E90
:100F400005A3D3E90023404602F0D2FB5AB0BDE826
:100F5000F08100BFAFF3008026417272DF25D7B762
:100F6000C0490020F0B5254E4FF48A7505FB006599
:100F7000F1B096F8D83085F8DC300024D82221462C
:100F800085F8E8403AA800F047FD06F1090000F0B6
:100F90003BFDD5F8E4308DF8F000C2B206AF06F1A3
:100FA00009010DF1F100CDE93A3400F023FD394695
:100FB00001223AA800F024FF80B2CDE90470082392
:100FC0000127CDE9023706F1D803019330230093BE
:100FD000317A0B4807A3D3E9002302F089FBA04232
:100FE00006DD01F0C7FFC5F8E000384671B0F0BD7E
:100FF0002046FBE778F6339F93CACD8DC049002089
:10100000D03400202DE9F0411D4D1E4E1E4F86B0FC
:10101000284602F099FB034658B30024CDE9034467
:10102000ADF81440027B8DF8142099684068029452
:1010300003AA03C21B68DFF8548043F00043029305
:1010400001F09AFF821941F10003009402A9384689
:1010500001F06EF9A04205DD284602F079FB88F820
:101060000040D5E798F80030072B05D8013388F801
:10107000003006B0BDE8F081014802F069FBF8E7F6
:10108000D034002040420F0000350020F54E0020F3
:1010900070B50D4614461E4602F086FA50B9022E6F
:1010A00010D1012C0ED112A3D3E90023C5E90023EE
:1010B000012007E0282C10D005D8012C09D0052CE0
:1010C0000FD0002070BD302CFBD10BA3D3E900233F
:1010D000ECE70BA3D3E90023E8E70BA3D3E9002354
:1010E000E4E70BA3D3E90023E0E700BFAFF3008000
:1010F000401DA12026812A0B78F6339F93CACD8DFF
:101100009E6AC421818A46EE26417272DF25D7B7D6
:10111000F017304A39059E5638B505460E4C002169
:10112000013500F015FCA4F82C55B4F82C0500F09E
:10113000F7FB78B1B4F82C0500F002FC014648B981
:10114000B4F82C0500F004FCB4F82C350133A4F8F5
:101150002C35EAE738BD00BFC049002010B50A4B66
:101160000A4A1A6003F5805393F848203AB95C6C38
:101170002CB1204600F03EFF204604F0B3F9BDE854
:101180001040034800F036BF00350020E05500084D
:10119000304500202DE9F04F8FB000AF05460C46DA
:1011A00002F002FA002849D1237E022B1BD1E38AE8
:1011B000012B18D101F0DEFE0646FFF7E5FD0346E0
:1011C0004FF4C870DFF8C482B3FBF0F206F5167670
:1011D00002FB103316FA83F3C8F80030E37E33B90C
:1011E000A34B00221A703C37BD46BDE8F08F07F1D3
:1011F0002401204600F05AFD0028F4D107F1140024
:10120000FFF7DAFD97F8264007F11401224607F1AF
:10121000270004F07FF90028E2D10F2C08D8944B66
:101220001C70D8F80030A3F51673C8F80030DAE760
:1012300097F82410284602F0AFF9D4E7E38A282B68
:101240002BD010D8012B23D0052BCCD1BFF34F8F3F
:101250008849894BCA6802F4E0621343CB60BFF34C
:101260004F8F00BFFDE7302BBDD1844EE17E327A37
:101270009142B8D1607E3146002291F8DC5085421F
:1012800000F0A5800132042A01F58A71F5D1AAE7A0
:1012900021462846FFF7A0FDA5E721462846FFF78F
:1012A00003FEA0E7B2F8EC507B6005F103094FEABA
:1012B00099094FEA8902D11DC908A8EBC1039D46CF
:1012C000EB460021584600F0A7FB04F1EE012A4648
:1012D0003144584600F08EFB7B6813B9012000F0C2
:1012E0000FFB96F8D20000F01BFB044630B93072B9
:1012F00000F040FB204600F003FBB1E0D6F8D4201C
:101300003AB996F8D200B6F82C25824201D8FFF7F8
:1013100003FFD6F8D4202A44944208D296F8D2008B
:10132000B6F82C250130824201D8FFF7F5FE70682F
:101330005FFA89F2594600F077FB08B9C54679E0B3
:10134000726896F8D2002A447260D6F8D42005EB71
:101350000209C6F8D49000F0E3FA814509D396F863
:10136000D220D6F8D4000132001B86F8D220C6F86D
:10137000D400FF2D0FD80024347200F0FBFA204671
:1013800000F0BEFA00F0B8FD3D4B188108B9FFF738
:1013900015FAC54627E7BB6896F8D9000AFB036231
:1013A000FB68D2F8E41082F8E83001F58061C2F8F9
:1013B000E030C2F8E410FFF7D5FDFFF723FE96F802
:1013C000D920013202F0030286F8D920B6E74FF4A3
:1013D0008A7A0AFB02F505F1EA013144204600F061
:1013E0003BFDF86000287FF4FEAE3544012285F80D
:1013F000E82001F0BFFDD5F8E020D6ED007ADFED62
:10140000216A801A192838BF192040F6B832904254
:1014100028BF1046B8EE677A07EE900AF8EEE77A32
:1014200067EEA67ADFED186AE7EE267AFCEEE77A39
:10143000C6ED007A96F8D930BB60BA6873680AFBCB
:1014400002F4321992F8E81059B1D2F8E4108B4244
:10145000E8463FF427AF002182F8E810C2F8E01018
:10146000C5467368064A9B0A01331381BBE600BF79
:10147000C934002000ED00E00400FA05C049002056
:10148000B8240020CDCCCC3D6666663FCC3400202D
:10149000014B1870704700BFC424002038B54FF0CE
:1014A0000054134B22689A4220D1124B627D12489D
:1014B0001A70237D03724FF48073C0F8F8314FF433
:1014C0000073C0F80C3300254FF44073C0F820348B
:1014D0000A49C0F8E450C922093000F08BFAE02232
:1014E0002946204600F098FA012038BD0020FCE78C
:1014F0009AAD44C5C4240020C04900201600002035
:1015000037B500F0F9FC194D1949288102236B7198
:1015100000220123174801F033F900230193164BF1
:10152000164900931648174B4FF4805202F00CF8FE
:10153000154B197811B1124802F02EF801F01AFD7E
:101540000446FFF721FC4FF4C873B0FBF3F202FB33
:10155000130304F5167010FA83F00C4B186003F0B7
:10156000BDFC08B10F232B8103B030BDB82400208F
:1015700040420F000035002091100008C8240020D0
:10158000D034002095110008C4240020CC34002061
:101590002DE9F04F2DED028B8CA7D7E900670FF2F4
:1015A0003429D9E90089844C95B00DAD9FED808B2D
:1015B000FFF728FDDFF824B200230C93ADF83C3090
:1015C0000D936B6000230DF125028DED008B4FF024
:1015D000010A09A958468DF825308DF824A001F09C
:1015E00031FC9DF824200023002A40F0AE802046E4
:1015F00001F0DAFF0546002847D1DFF8E4B101F039
:10160000B9FCDBF8003098423FD301F0B3FC0790FF
:10161000FFF7BAFB079A4FF4C873B0FBF3F101FB75
:10162000130302F5167010FA83F0CBF80000DFF810
:10163000B4B19BF800100791002914BF2B46534604
:1016400010A88DF83030FFF7B7FB0799C1F11002F1
:10165000D2B2062A10AB28BF062219440DF1310080
:10166000079200F0C7F9079A0CAB03931823029373
:101670000132524BD2B2CDE900A304923B4632462E
:10168000204601F0D7FF8BF8005001F073FC4C4A64
:101690004C4D1368C31AB3F57A7F32D3106001F052
:1016A0006BFC02460B46204602F05CF8204601F037
:1016B0007BFF30B32B7ADFF830A1002B14BF03235C
:1016C00002238AF8053001F055FC0DF1400B4FF470
:1016D0007A730122B0FBF3F05946CAF80000504675
:1016E00000F0BCFA18230293374B019380B240F20A
:1016F0005513CDE903B0009342464B46204601F016
:1017000099FF2B7AABB101F035FC4FF0000A83460C
:101710004FF48A7295F8D900504400F0030002FBA0
:10172000005393F8E81071B30AF1010ABAF1040FFB
:10173000F0D1C82003F072F82B7A002B7FF435AF7C
:1017400015B0BDEC028BBDE8F08F1946102210A831
:1017500000F062F90DF126030AAA0CA9584600F020
:10176000D9FE95E8030011AB83E803009DF83C30F7
:101770008DF84C300C9B109310A9DDE90A2320460C
:1017800002F0C4F91EE7D3F8E01049B12B68FA2B38
:1017900038BFFA23ABEB01010533B1EB430FC3D3E1
:1017A000FFF7E0FB4FF48A720028BDD1C1E700BF0C
:1017B0000000000000000000D0340020C8340020E9
:1017C000F04E0020C0490020F44E0020401DA12012
:1017D00026812A0BF1C6A7C1D068080F003500206A
:1017E000CC340020C9340020B824002008B50548B6
:1017F00000F034FFBDE80840034A0449002003F02C
:101800006BBE00BF00350020484F00205D1100086E
:101810007047000070B5104B1B780133DBB2012B11
:101820000C4612D80D4B1D6829684FF47A730E6A66
:10183000A2FB0332014622462846B047844204D127
:10184000074B00221A70012070BD4FF4FA7002F0AD
:10185000E5FF0020F8E700BF182300201C2300202C
:101860003C4F002007B50023024601210DF107007F
:101870008DF80730FFF7CEFF20B19DF8070003B0C9
:101880005DF804FB4FF0FF30F9E700000A4608B5A9
:101890000421FFF7BFFF80F00100C0B2404208BD45
:1018A00030B4074B0A461978064B53F82140236899
:1018B000DD69054B0146AC46204630BC604700BFA1
:1018C0003C4F00201C230020A086010070B503F0CF
:1018D0004DF9094E094D3080002428683388834231
:1018E00008D903F03FF92B6804440133B4F5104FD5
:1018F0002B60F2D370BD00BF3E4F0020F84E002099
:1019000003F0E6B900F1006000F510400068704790
:1019100000F10060920000F5104003F063B9000090
:10192000054B1A68054B1B889B1A834202D9104449
:1019300003F018B900207047F84E00203E4F0020F9
:10194000024B1B68184403F013B900BFF84E002087
:10195000024B1B68184403F01DB900BFF84E00206D
:101960000020704700F10050A0F51040D0F890051D
:1019700070470000064991F8243033B10023086A0B
:1019800081F824300822FFF7C3BF0120704700BF51
:10199000FC4E0020014B1868704700BF002004E097
:1019A00030B50F4B0F4C1B682288C3F30B03013873
:1019B000934208440BD164680A46013C82421346B4
:1019C0000BD214F9015F2DB102F8015BF6E78142F9
:1019D0000B4602D22C2203F8012B581A30BD00BF4F
:1019E000002004E020230020704700007047000022
:1019F0007047000010B50023934203D0CC5CC45460
:101A00000133F9E710BD000003460246D01A12F96F
:101A1000011B0029FAD1704702440346934202D0C9
:101A200003F8011BFAE770472DE9F8431F4D1446F0
:101A300095F824200746884652BBDFF870909CB387
:101A400095F824302BB92022FF2148462F62FFF75A
:101A5000E3FF95F82400C0F10802A24228BF224605
:101A6000D6B24146920005EB8000FFF7C3FF95F820
:101A70002430A41B1E44F6B2082E17449044E4B24E
:101A800085F82460DBD1FFF775FF0028D7D108E087
:101A90002B6A03EB82038342CFD0FFF76BFF002852
:101AA000CBD10020BDE8F8830120FBE7FC4E0020ED
:101AB000024B1A78024B1A70704700BF3C4F00204F
:101AC0001823002003494FF461430B60024B186850
:101AD00002F06ABD244F00201C230020094B10B5E2
:101AE0001822044600211846FFF796FF064A074BC6
:101AF000127804600146BDE8104053F8220002F05D
:101B000053BD00BF244F00203C4F00201C23002069
:101B10002DE9F0470D46044600219046284640F244
:101B20007912FFF779FF234620220021284601F091
:101B30008FFF231D02222021284601F089FF631D0B
:101B400003222221284601F083FFA31D0322252121
:101B5000284601F07DFF04F10803102228212846C1
:101B600001F076FF04F1100308223821284601F025
:101B70006FFF04F1110308224021284601F068FF9D
:101B800004F1120308224821284601F061FF04F104
:101B9000140320225021284601F05AFF04F11803B3
:101BA00040227021284601F053FF04F1200308224F
:101BB000B021284601F04CFF04F121030822B8218E
:101BC000284601F045FF04F12207C0263B46314676
:101BD00008222846083601F03BFFB6F5A07F07F142
:101BE0000107F3D104F1320308223146284601F0FF
:101BF0002FFF002704F1330A94F832304FEAC70967
:101C00009F4209F5A47615D3B8F1000F08D13146EB
:101C100004F599730722284601F01AFF09F24F16BE
:101C2000274694F832213B1B93420CD3F01DC00889
:101C3000BDE8F0870AEB070308223146284601F089
:101C400007FF0137D8E707F2331331460822284649
:101C500001F0FEFE08360137E3E7000013B5044645
:101C60000846002101602346C0F80310202201909D
:101C700001F0EEFE0198231D0222202101F0E8FE72
:101C80000198631D0322222101F0E2FE0198A31DA9
:101C90000322252101F0DCFE019804F10803102243
:101CA000282101F0D5FE072002B010BDF7B50023B2
:101CB000047F00910E4607221946054601F08CFD6F
:101CC000731C0093012200230721284601F084FDA4
:101CD000C4B9B31C0093052223460821284601F00D
:101CE0007BFD0D243746B278BB1B934211D32B7F6B
:101CF000A88A0734E408BBB9844294BF00200120BD
:101D000003B0F0BDAB8ADB00083BDB08B3700824EE
:101D1000E8E7FB1C0093214600230822284601F037
:101D20005BFD08340137DEE7201A18BF0120E7E722
:101D3000F7B50023047F00910E4608221946054698
:101D400001F04AFD731CC4B90822009311462346D2
:101D5000284601F041FD1024012372785F1C013BED
:101D6000934211D32B7FA88A0734E408BBB984427D
:101D700094BF0020012003B0F0BDAB8ADB00083B1C
:101D8000DB0873700824E7E7F3190093214600236A
:101D90000822284601F020FD08343B46DDE7201AE2
:101DA00018BF0120E7E70000F8B50E4605461446C7
:101DB000002181223046FFF72FFE2B46082200210A
:101DC000304601F045FE7CB96B1C072208213046E5
:101DD00001F03EFE0F2401236A785F1C013B934211
:101DE00004D3E01DC008F8BD0824F4E7EB19214630
:101DF0000822304601F02CFE08343B46ECE7000098
:101E0000F8B50E46054614460021CE223046FFF7AF
:101E100003FE2B4628220021304601F019FE7CB932
:101E200005F1080308222821304601F011FE302474
:101E30002F462A7A7B1B934204D3E01DC008F8BDCD
:101E40002824F5E707F1090321460822304601F06E
:101E5000FFFD08340137ECE7F7B5047F00910E462B
:101E6000012310220021054601F0B6FCC4B9B31CC1
:101E70000093092223461021284601F0ADFC1924C5
:101E800037467288BB1B9A4211D82B7FA88A073429
:101E9000E408BBB9844294BF0020012003B0F0BD28
:101EA000AB8ADB00103BDB0873801024E8E73B1DA6
:101EB0000093214600230822284601F08DFC0834B7
:101EC0000137DEE7201A18BF0120E7E730B5094DDA
:101ED0000A4491420DD011F8013B5840082340F3C9
:101EE0000004013B2C4013F0FF0384EA5000F6D1BC
:101EF000EFE730BD2083B8EDF7B5384A1068516878
:101F00006B4603C36A4636493648082303F012FB82
:101F10000446002833D10A25334A106851686B46BD
:101F200003C36A4631492F48082303F003FB0446E4
:101F3000002849D00369B3F55C3F45D8B0F8661076
:101F400040F21D4291423FD1294A024402F15C0114
:101F50008B4239D35C3B234900209E1AFFF7B6FF22
:101F60003246074604F164010020FFF7AFFFA36883
:101F70009F4229D1E368984208BF002524E0036905
:101F8000B3F55C3F27D8418B40F21D42914220D1EE
:101F9000174A024402F110018B4218D3103B114939
:101FA00000209D1AFFF792FF2A46064604F1180109
:101FB0000020FFF78BFFA3689E4202D1E36898429E
:101FC00001D00D25A8E70025284603B0F0BD102557
:101FD000A2E70C25A0E70B259EE700BFB05500083F
:101FE000DC6F030000900008B9550008906F0300F3
:101FF0000870FFF710B5037C044613B9006803F0BE
:1020000081FA204610BD00000023BFF35B8FC36040
:10201000BFF35B8FBFF35B8F8360BFF35B8F704752
:10202000BFF35B8F0068BFF35B8F704770B50546E9
:102030000C30FFF7F5FF05F1080604463046FFF7C0
:10204000EFFFA04206D930466D68FFF7E9FF25444F
:10205000281A70BD3046FFF7E3FF201AF9E70000A9
:1020600070B50546406898B105F10800FFF7D8FF44
:1020700005F10C0604463046FFF7D2FF8442304695
:1020800094BF6D680025FFF7CBFF013C2C44201A5C
:1020900070BD000038B50C460546FFF7C7FFA042EB
:1020A00010D305F10800FFF7BBFF04446868B4FBD8
:1020B000F0F100FB1144BFF35B8F0120AC60BFF374
:1020C0005B8F38BD0020FCE72DE9F0411446074640
:1020D0000D46FFF7C5FF844228BF0446D4B1B84679
:1020E00058F80C6B4046FFF79BFF30442860404691
:1020F0007E68FFF795FF331A9C4203D86C6001207D
:10210000BDE8F0816B60A41B3B68AB602044E860D5
:102110000220F5E72046F3E738B50C460546FFF701
:102120009FFFA04210D305F10C00FFF779FF044494
:102130006868B4FBF0F100FB1144BFF35B8F012032
:10214000EC60BFF35B8F38BD0020FCE72DE9FF4159
:10215000884669460746FFF7B7FF6C4606B204EBB0
:10216000C6060025B44209D06268206808EB050164
:10217000FFF740FC636808341D44F3E729463846FE
:10218000FFF7CAFF284604B0BDE8F081F8B5054660
:102190000C300F46FFF744FF05F1080604463046B1
:1021A000FFF73EFFA042304688BF6C68FFF738FF5C
:1021B000201A386020B130462C68FFF731FF2044E8
:1021C000F8BD000073B5144606460D46FFF72EFF16
:1021D000844228BF04460190DCB101A93046FFF7D4
:1021E000D5FF019B33B93268C5E90233C5E9002444
:1021F00001200CE09C4238BF01942860019868607F
:102200008442F5D93368AB60241AEC60022002B036
:1022100070BD2046FBE700002DE9FF410F466946EF
:10222000FFF7D0FF6C4600B204EBC0050026AC42BD
:1022300009D0D4F8048054F8081BB8194246FFF7B7
:10224000D9FB4644F3E7304604B0BDE8F081000016
:1022500038B50546FFF7E0FF044601462846FFF77C
:1022600019FF204638BD0000302383F3118862B681
:1022700070470000002383F3118862B670470000A6
:10228000012070477047000010B4134602681468BC
:102290000022A4465DF8044B6047000000F5805022
:1022A00090F859047047000000F5805090F85204EF
:1022B0007047000000F5805090F958047047000006
:1022C0005020704700F5805208B5FFF7CDFFD2F8D7
:1022D0009C34D2F898041844D2F894341844D2F8B4
:1022E0007C341844D2F88C341844D2F8883418441A
:1022F000FFF7C0FF08BD000038B5C26A936923F03C
:1023000001039361044600F035FE0546E36A9B69CC
:10231000DB0706D500F02EFE431BFA2BF6D9002072
:1023200004E004F58054012084F8520438BD000014
:102330002DE9F04F0C4600F5805185B01F4691F80D
:102340005234BDF83890054690469BB1D1F87834A8
:102350000133C1F8783423689A0006D4237B082B14
:102360000BD9627B0AB10F2B07D9D1F87C3401332A
:10237000C1F87C344FF0FF300FE0FFF775FFEB6AD8
:10238000D3F8C42012F4001A0AD0D1F880340133F3
:10239000C1F88034FFF76EFF002005B0BDE8F08F74
:1023A000D3F8C46022686B6AC6F301464FF0480B4D
:1023B000002A1BFB063BB4BF42F080429204CBF8DC
:1023C000002023685B0044BF42F00052CBF800209D
:1023D000227B330643EA0243CBF80430607B720170
:1023E00018B343F44013CBF80430D1F8B0340133C0
:1023F000C1F8B034AB1803F58353197B41F02001C9
:102400001973207B039200F011FE039A03308010B1
:102410005FFA8AF383420AF1010A0DDA04EB8301C1
:102420000BEB830349689960F2E7AB1803F583531C
:10243000197B60F34511E3E7EB6A0121B140C3F872
:10244000CC10AB1803F58253C3E9048705EB4613A0
:1024500003F582532146183304F10C0051F804CBE4
:1024600043F804CB8142F9D1098819802A4441F20A
:1024700068032846D65002F5805209F0030392F80B
:102480006C1043F0100321F01F010B4382F86C30F5
:10249000FFF7F0FE4246CDF800903B46214600F0A3
:1024A0008BFD012079E7000013B500F58054019100
:1024B000606CFFF7D5FD1F280AD90199606C2022B6
:1024C000FFF744FEA0F120035842584102B010BD6E
:1024D0000020FBE708B500F58050FFF7C5FE406C13
:1024E000FFF792FDBDE80840FFF7C4BE002202607E
:1024F000828142608260704710B500220023C0E9EB
:1025000000230023044603810C30FFF7EFFF204631
:1025100010BD00002DE9F047074688B007F580544C
:1025200068469A468846FFF79FFE9146FFF7E4FF0C
:10253000606CFFF77BFD1F282CD9606C2022694658
:10254000FFF786FE202825D194F8523413B303AD4B
:10255000444605AB2E4603CE9E4220606160354660
:1025600004F10804F6D130682060B388A380DDE967
:102570000023C9E90023BDF80830AAF80030FFF7AE
:1025800079FE4A4653464146384608B0BDE8F04712
:1025900000F000BDFFF76EFE002008B0BDE8F08738
:1025A0002DE9F84F00230646C0E90133284B46F8D1
:1025B000303B00F58154054688463746103438468E
:1025C0002037FFF799FFA742F9D105F580544FF462
:1025D000805326630026C4E90D366764012305F5A0
:1025E000835705F5A359E66384F8403084F84830F2
:1025F000103709F110094FF0000A4FF0000B47E9BE
:1026000008ABA7F11800FFF771FF203747F8286CD7
:102610004F45F4D184F85884A4F85A64A4F85C6453
:10262000A4F85E6484F86064A4F86264A4F8646446
:10263000A4F8666484F86864B8F1000F02D0054815
:1026400000F092FC044BEB622846BDE8F88F00BF17
:10265000E0550008C45500080064004010B5044B64
:10266000197804464A1C1A70FFF79AFF204610BDDD
:10267000454F00202DE9F04300295FD03048314B11
:10268000B3FBF1F381428CBF0A201120451EB3FB3E
:10269000F0F700FB1730ECB220B1022D2846F5D838
:1026A000002037E07D1EB5F5806F33D2C4EBC4083F
:1026B00008F103034FEAE30EC3F3C703A4EB030CD3
:1026C0000EF101094FF47A705FFA8CF60EFB000EE2
:1026D00059FA8CFCBEFBFCFCBCF5617F1CDC1FFACC
:1026E0008CF4581C56FA80F047431648B0FBF7F7B5
:1026F000B942D5D1013BDBB20F2BD1D8711EC9B283
:1027000007294FF0000005D81071148055805371CF
:1027100091710120BDE8F08308F1FF334FEAE30C2B
:10272000C3F3C703E41A0CF1010EE6B20CFB000080
:102730005EFA84F4B0FBF4F4A4B2D2E70846E9E709
:102740003F420F000024F4000B4B10B54FF45472BD
:10275000044600211846FFF75FF9084BA361403398
:10276000E361D8332362F0336362E36A606100227D
:10277000C3F8C02010BD00BF00A4004070A40040FA
:102780002DE9F04F00F58055994695F85834012B06
:1027900089B004468A46904604D90027384609B0D5
:1027A000BDE8F08F8D4A52F8231009B942F8230092
:1027B0008B49C4F80CA00B7884F8109093B9FFF7FC
:1027C00053FD884B9A6D42F000729A659A6B42F005
:1027D00000729A639A6B22F000729A6301230B7065
:1027E000FFF748FD95F8513473B903211520FFF721
:1027F0003BFD01F023FD0321162001F01FFD012305
:1028000085F85134FFF736FDFFF72EFDE26A936934
:1028100023F01003936100F0ADFB0746E36A9E6965
:1028200016F0080607D000F0A5FBC31BFA2BF5D95C
:10283000FFF720FDB1E79A6942F001029A6100F0CA
:1028400099FB0746E36A9A69D00705D400F092FB2A
:10285000C31BFA2BF6D9EBE79A6942F002029A61A0
:10286000E36A00275F65FFF705FD686CFFF7CCFBA7
:1028700004F5825B0BF1100B202200216846FFF764
:10288000CBF802A8FFF732FE06976A460BEB060369
:102890000DF1180E9446BCE80300F4451860596029
:1028A000624603F10803F5D1DCF800001860203619
:1028B0009CF804201A71B6F5806FDDD1002304F571
:1028C000A25285F8503485F853341A3251462046C6
:1028D000FFF7D0FE074690B9E26A936923F001033F
:1028E000936100F047FB0546E36A9B69D9077FF5D2
:1028F00054AF00F03FFB431BFA2BF5D94DE795F899
:102900005F6495F85E24C5F86CA4360246EA426618
:1029100095F86024E36A1643B5F85C2446EA02465B
:10292000DE61B8F1000F29D004F5A352023241460E
:102930002046FFF79FFE90B9E26A936923F00103F6
:10294000936100F017FB0546E36A9B69DA077FF5A0
:1029500024AF00F00FFB431BFA2BF5D91DE795F8C8
:10296000683495F86714C5F870841B0143EA0123A5
:10297000B5F86414E26A43EA0143D3602046FFF7E6
:10298000E3FE002385F85934E36A6FF040421A658C
:10299000E36A154A5A65E36A44229A65E36A0722A4
:1029A000C3F8DC20E36A03229145DA653FF4F6AE12
:1029B000E26A936923F00103936100F0DBFA0646B3
:1029C000E36A9B69DB0705D500F0D4FA831BFA2B79
:1029D000F6D9E2E6012385F85234DFE6404F0020C5
:1029E000444F0020001002409B0008002DE9F04FEA
:1029F000054689B090469946002741F2680A00F5DD
:102A00008056EB6AD3F8D430FB40D8074ED505EB9F
:102A1000471252444FEA471B1379190746D4D6F898
:102A200084340133C6F8843405F5A553C3E900891D
:102A300013799A0648BFD6F8B43405EB0B0248BFA9
:102A40000133524448BFC6F8B434137943F0080345
:102A50001371DB0722D596F85334FBB105F5825488
:102A6000183468465C44FFF747FD03AB04F1080CDB
:102A7000206861681A4603C2083464451346F7D1DA
:102A800020681060A2889A800123ADF808302B6876
:102A9000CDE90089DB6B694628469847D6F854345F
:102AA00023B1D6F8A8340133C6F8A8340137202F53
:102AB000A7D109B0BDE8F08F2DE9F04F8DB00446E5
:102AC0000F4600F059FA82468946002F56D1E36A34
:102AD000D3F89020920141BF04F58051D1F8982499
:102AE0000132C1F89824D3F89020160703D10020B2
:102AF0000DB0BDE8F08FD3F89050E669C5F301251D
:102B0000482303FB0566E8464046FFF7EFFC3268C2
:102B100051004ABF22F06043C2F38A4343F00043AE
:102B2000920048BF43F080430093736813F400138E
:102B30001FBF04F5805201238DF80D30D2F8B83450
:102B40000EBF8DF80D300133C2F8B834F38803F0AE
:102B50000F038DF80C304FF0000B9DF80C0000F0C7
:102B600065FA5FFA8BF3984220D9F2180CA90B444E
:102B7000127A03F82C2C0BF1010BEEE7012FB6D1E2
:102B8000E36AD3F89820950141BF04F58051D1F84C
:102B900098240132C1F89824D3F898201007A6D0C1
:102BA000D3F89850266AC5F30125A9E7EFB9E36A7F
:102BB000C3F8945004A8FFF79FFC98E80F0007ADF6
:102BC00007C52B800023ADF8183023682046CDE9D7
:102BD00004A9DB6B04A9984704F5805458B1D4F8D4
:102BE00090340133C4F8903482E7012F04BFE36AC4
:102BF000C3F89C50DEE7D4F894340133C4F894341D
:102C0000012075E7F8B505460F4600F5805401260A
:102C100039462846FFF750FF10B184F85364F7E7B0
:102C2000D4F8543423B1D4F8A8340133C4F8A83408
:102C3000F8BD0000F0B5C36A1A6C12F47F0F2BD0F8
:102C400000F580541B6CC4F8AC3441F268050023D5
:102C500047194FF0010C00EB43122A445E01117931
:102C600011F0020F15D0490713D4B959C66AD6F826
:102C7000C8E00CFA01F111EA0E0F0AD0C6F8D01024
:102C8000117941F004011171D4F88C240132C4F897
:102C90008C240133202BDED1F0BD000010B5254C73
:102CA000254B226802B338B31A6D12060ED5802266
:102CB0001A6500F061F950EA01020B4602D00138B2
:102CC00061F1000302462068FFF790FE1A4A136D77
:102CD0001B032AD523684FF4002103F580531165A7
:102CE000012283F8592420E001221A6508221A657E
:102CF0004FF480621A6510BD196DC80702D4196DB2
:102D0000890705D50321196510460021FFF77AFFD1
:102D1000094B1A6D100702D41A6DD10605D5182279
:102D20001A6520680121FFF76DFF2068BDE810409B
:102D3000FFF780BF404F00200064004008B5FFF758
:102D400093FAFFF777FFBDE80840FFF793BA00005A
:102D5000C36AD3F8C40080F40010C0F34050704739
:102D600000F5805008B5FFF77FFA406CFFF75EF979
:102D7000FFF780FA43090CBF0120002008BD0000C6
:102D800000F5805393F8592462B1C16A8A6922F030
:102D900001028A61D3F89C240132C3F89C240022EA
:102DA00083F85924704700002DE9F74300F582515C
:102DB00098461031FFF758FA002541F2680E4FF09F
:102DC000010900F5805C00EB4514744423795E072B
:102DD0001CD4DB061AD5C36A8E69D3F8C87009FA09
:102DE00006F63E4212D04F6801970F689742019F46
:102DF00077EB08070AD2C3F8D060237943F00403C5
:102E00002371DCF888340133CCF888340135202D67
:102E100001F12001D7D103B0BDE8F043FFF72ABA92
:102E2000F8B51E46002313700F4605461446FFF7FB
:102E300097FF80F0010038701EB12846FFF788FF29
:102E40002070F8BD2DE9F04F85B09946DDE90EA35D
:102E50000D4602931378019391F800B08046164610
:102E600000F08AF82B7804460F4613B93378002B0C
:102E700042D022463B464046FFF796FFFFF75EFFF3
:102E8000FFF77EFF4B4632462946FFF7C9FF2B78F6
:102E900033B1BBF1000F03D0012005B0BDE8F08FC6
:102EA000337813B1019B002BF6D108F580530393BF
:102EB000029B544577EB03031ED2039BD3F85404C3
:102EC000D0B10368AAEB0401DB6889B298474B468E
:102ED000324629464046FFF7A3FF2B7813B1BBF1DA
:102EE000000FD9D1337813B1019B002BD4D100F05E
:102EF00043F804460F46DBE70020CEE708B5002084
:102F0000FFF7CCFEBDE8084001F050B808B501203D
:102F1000FFF7C4FEBDE8084001F048B800B59BB01B
:102F2000EFF3098168226846FEF764FDEFF305833D
:102F3000014B9B6BFEE700BF00ED00E008B5FFF71B
:102F4000EDFF000000B59BB0EFF3098168226846F1
:102F5000FEF750FDEFF30583014B5B6BFEE700BF0F
:102F600000ED00E0FEE700000FB408B5029801F0A4
:102F7000EBFBFEE701F0FABE01F0D2BE13B56C46E2
:102F800084E80600031D94E8030083E8050001209F
:102F900002B010BD73B58568019155B11B885B0700
:102FA00007D4D0E900369B6B9847019AC1B23046EE
:102FB000A847012002B070BDF0B5866889B005460B
:102FC0000C465EB1BDF838305B070AD4D0E9003753
:102FD0009B6B98472246C1B23846B047012009B0E2
:102FE000F0BD00220023CDE900230023ADF8083016
:102FF0000A4603AB01F10806106851681C4603C479
:103000000832B2422346F7D1106820609288A2802D
:10301000FFF7B2FF0423ADF808302B68CDE90001BB
:10302000DB6B694628469847D8E70000082817D97F
:1030300009280CD00A280CD00B280CD00C280CD056
:103040000D280CD00E2814BF4020302070470C20D3
:1030500070471020704714207047182070472020B8
:10306000704700002DE9F041456A15B94162BDE89D
:10307000F0814B6823F06047C3F38A464FEAD37E62
:10308000C3F3807816EA230638BF3E46AC462B468B
:103090005A68BEEBD27F22F060440AD0002A18DAC8
:1030A000A40CB44217D19D420FD10D60DEE7134648
:1030B000EEE7A74207D102F08044C2F38072424596
:1030C0000BD054B1EFE708D2EDE7CCF800100B605D
:1030D000CDE7B44201D0B442E5D81A689C46002A34
:1030E000E5D11960C3E700002DE9F047089D01F024
:1030F00007044FEAD508224405F0070500EBD1008C
:103100004FF47F49944201D1BDE8F08704F00707EE
:1031100005F0070A57453E4638BF5646C6F1080631
:10312000111B8E4228BF0E46E10808EBD50E415C0C
:1031300013F80EC0B94029FA06F721FA0AF1FFB2D6
:103140008CEA010147FA0AF739408CEA010C03F8CE
:103150000EC034443544D5E780EA0120082341F20B
:10316000210201B24000002980B203F1FF33B8BF51
:10317000504013F0FF03F4D17047000038B50C46FF
:103180008D18A54200D138BD14F8011BFFF7E4FFEC
:10319000F7E7000042684AB11368436043898189B8
:1031A00001339BB29942438138BF838110467047F7
:1031B00070B588B0202204460D4668460021FEF70F
:1031C0002BFC20460495FFF7E5FF024658B16B46FD
:1031D000054608AE1C4603CCB4422860696023460D
:1031E00005F10805F6D1104608B070BD082817D9BA
:1031F00009280CD00A280CD00B280CD00C280CD095
:103200000D280CD00E2814BF4020302070470C2011
:1032100070471020704714207047182070472020F6
:1032200070470000082817D90C280CD910280CD991
:1032300014280CD918280CD920280CD930288CBF78
:103240000F200E207047092070470A2070470B207E
:1032500070470C2070470D20704700002DE9F8439F
:10326000078C072F04461ED9D0E9029800254FF697
:10327000FF73C5F12006A5F1200029FA05F108FA2F
:1032800006F628FA00F031430143C9B21846FFF7A9
:1032900063FF0835402D0346EBD1E1693A46BDE8AE
:1032A000F843FFF76BBF4FF6FF70BDE8F8830000EF
:1032B00010B54B6823B9CA8A63F30902CA8210BDEC
:1032C00004691A681C600361C38A013BC3824A60B7
:1032D000EFE700002DE9F84F1D46CB8A0F46C3F3F8
:1032E00009010529814692460B4630D00020AAB23A
:1032F00007F11A049EB2042E1FFA80F80FD89045E9
:1033000003F1010306D3FB8A0A4462F30903FB823B
:1033100001201AE01AF80060E6540130EAE790450F
:10332000F1D2A1F1050B1C237C68BBFBF3F203FB7C
:1033300012BB1FFA8BF6002C45D14846FFF72AFF37
:10334000044638B978606FF00200BDE8F88F4FF09E
:103350000008E6E7002606607860ADB24FF0000B8B
:10336000454510D90AEB0803221D13F8011B91559E
:10337000B1B208F101081B291FFA88F82BD0454586
:1033800006F10106F1D8FB8AC3F30902154465F37F
:103390000903BCE7013292B21C462368002BF9D125
:1033A0006B1F0B441C21B3FBF1F301339BB29A4218
:1033B000D3D2BBF1000FD0D14846FFF7EBFE20B9C6
:1033C000C4F800B0BFE70122E7E7C0F800B05E46EE
:1033D00020600446C1E74545D5D94846FFF7DAFEE7
:1033E00008B92060AFE7C0F800B0002620600446AE
:1033F000B6E700002DE9F04F2DED028B1C4683B09F
:103400005B69019207468846002B00F09A80238C66
:103410002BB1E269002A00F09480072B35D807F120
:103420000C00FFF7B7FE054638B96FF002052846D5
:1034300003B0BDEC028BBDE8F08F14220021FEF733
:10344000EBFA228CE16905F10800FEF7D3FA208C33
:10345000013080B2FFF7E6FEFFF7C8FE013880B208
:103460002084013028746369228C1B782A4403F07D
:103470001F0363F03F0348F0004113723846696050
:103480002946FFF7EFFD0125D1E700F10C034FF0CE
:10349000000908EE103A4FF0800A4E464D4618EEED
:1034A000100AFFF777FE83460028BED014220021C1
:1034B000FEF7B2FA002E3AD1019BABF80830022297
:1034C0000BF1080E1FFA82FC0CF10100BCF1060F93
:1034D000218C80B201D88E422BD3FFF7A3FEFFF7D9
:1034E00085FE62691278013802F01F028E4208BF21
:1034F0004FF0400A42EA49121BFA80F14AEA020AF6
:10350000013048F0004281F808A08BF81000CBF899
:10351000042059463846FFF7A5FD238C0135B342F8
:103520002DB289F001094FF0000AB8D17FE70022DF
:10353000C6E7E169895D0EF802100136B6B20132C4
:10354000C0E76FF0010572E7F8B515460E46302268
:10355000002104461F46FEF75FFA069B6360B5F53F
:10356000001F079BA76034BF6A094FF6FF72A36272
:1035700097B2E66104F1100000239A4206D80023B6
:103580000360A782E3822383E360F8BD0660013312
:1035900030462036F1E7000003781BB94BB2002B10
:1035A000C8BF01707047000000787047F8B50C463E
:1035B000C969074611B9238C002B37D1257E1F2DF1
:1035C00034D8387828BB228C072A2CD8268A36F0A3
:1035D00003032BD14FF6FF70FFF7D0FD20F0010061
:1035E0003102400441EA0561400C41EA40254FF6B2
:1035F000FF72234629463846FFF7FCFE002807DD08
:10360000626913780133DBB21F2B88BF002313706C
:10361000F8BD218A2D0645EA012505432046FFF71E
:103620001DFE0246E5E76FF00300F1E76FF00100D1
:10363000EEE7000070B58AB0044616460021282245
:1036400068461D46FEF7E8F9BDF83830ADF8103091
:103650000F9B05939DF840308DF81830119B079310
:103660006946BDF84830ADF820302046CDE9026506
:10367000FFF79CFF0AB070BD2DE9F041D369054604
:103680000C4616460BB9138C5BBB377E1F2F28D810
:1036900095F80080B8F1000F26D03046FFF7DEFD28
:1036A0003378210241EAC33141EA0801338A41EA11
:1036B000076141EA03410246334641F08001284652
:1036C000FFF798FE00280ADD3378012B07D17269D5
:1036D00013780133DBB21F2B88BF00231370BDE8C2
:1036E000F0816FF00100FAE76FF00300F7E70000E8
:1036F000F0B58BB004460D461746002128226846D7
:103700001E46FEF789F99DF84C305A1E534253412C
:103710008DF800309DF84030ADF81030119B0593C6
:103720009DF848308DF81830149B07936A46BDF811
:103730005430ADF8203029462046CDE90276FFF717
:103740009BFF0BB0F0BD0000406A00B10430704731
:10375000436A1A68426202691A600361C38A013BC4
:10376000C38270472DE9F041D0F82080194E1446ED
:103770001D464146002709B9BDE8F081D1E9022381
:10378000A21A65EB0303964277EB03031ED2036A8A
:103790008B420DD1FFF78CFD036A1B68036203693E
:1037A0000B60C38A0161016A013BC3828846E2E77C
:1037B000FFF77EFD0B68C8F8003003690B60C38A11
:1037C0000161013BC382D8F80010D4E7884609683C
:1037D000D1E700BF80841E002DE9F04F8BB00D466D
:1037E000DDF8509014469B468046002800F0198171
:1037F000B9F1000F00F01581531E3F2B00F211812B
:10380000012A03D1BBF1000F40F00B810023CDE969
:103810000833B8F81430B5EBC30F4FEAC30703D32E
:1038200000200BB0BDE8F08F2B199F42D8F80C3068
:103830003ABF7F1BFFB227461BB9D8F81030002BC8
:103840007AD0272D4ED8C5F12806B7424FF0000395
:103850002CBFF6B23E4600932946D8F8080008ABC4
:103860003246FFF741FCA7EB060A35445FFA8AFAB5
:10387000B8F8143003F10053053BDB000493D8F88B
:103880000C3003932821039B13B1BAF1000F2CD104
:10389000D8F8100040B1BAF1000F05D0009608AB7F
:1038A0005246691AFFF720FC38B2002FB8D06607DD
:1038B0000AD00AAB03EBD401624211F8083C02F0D3
:1038C0000702134101F8083C082C3CD9102C40F2A7
:1038D000B580202C40F2B780BBF1000F00F09C8037
:1038E000082334E0BA460026C2E7049BE02B28BF39
:1038F000E02306930B44AB42059314D95A1B03985B
:103900000096924534BF5246D2B2691A08AB0430D1
:103910000792FFF7E9FB079A1644AAEB020A15443F
:10392000F6B25FFA8AFA049B069A05999B1A0493E9
:10393000039B1B680393A6E70093D8F8080008AB25
:103940003A462946AEE7BBF1000F13D00123B4EB92
:10395000C30F6CD0082C12D89DF82030621E23FAB9
:1039600002F2D50706D54FF0FF3202FA04F42343E2
:103970008DF820309DF8203089F8003051E7102C68
:1039800012D8BDF82030621E23FA02F2D10706D504
:103990004FF0FF3202FA04F42343ADF82030BDF8B3
:1039A0002030A9F800303CE7202C0FD80899631E7E
:1039B00021FA03F3DA0705D54FF0FF3202FA04F4D7
:1039C0000C430894089BC9F800302AE7402C2BD000
:1039D000DDE90865611EC4F12102A4F1210326FA84
:1039E00001F105FA02F225FA03F311431943CB075B
:1039F00012D50122A4F12003C4F1200102FA03F33D
:103A000022FA01F1A240524243EA010363EB43036D
:103A100032432B43CDE90823DDE90823C9E900231C
:103A2000FFE66FF00100FCE66FF00800F9E6082CF5
:103A3000A0D9102CB3D9202CEED8C3E7BBF1000FCE
:103A4000ADD0022383E7BBF1000FBBD004237EE798
:103A500030B5012A144638BF0124402C85B028BF58
:103A600040240025012ACDE9025518D81B788DF88D
:103A7000083063070AD004AB03EBD405624215F8A3
:103A8000083C02F00702934005F8083C0091034609
:103A90002246002102A8FFF727FB05B030BD082A07
:103AA000E4D9102A03D81B88ADF80830E1E7202AB2
:103AB0008DBFD3E900231B680293CDE90223D8E729
:103AC00010B5CB681BB98B600B618B8210BD04698C
:103AD0001A681C600361C38A013BC382CA60F0E7B5
:103AE00003064CBFC0F3C0300220704708B5024641
:103AF000FFF7F6FF022806D15306C2F30F2001D1CB
:103B000000F0030008BDC2F30740FBE72DE9F04FCA
:103B100093B0CDE903230A6804461046FFF7E0FF9F
:103B2000022814BFC2F306260026002A0D4682464C
:103B300080F2F28112F0C04940F0EE81097B002949
:103B400000F0EA81022803D02378B34240F0E781F5
:103B5000C2F304630693104602F07F030593FFF758
:103B6000C5FF059B29444FEA834848EA0A4848EACA
:103B70004668CE7800230022CDE90823F309834666
:103B800048EA0008029367D0059B009302466768E5
:103B9000534608A92046B847002800F0C381276A89
:103BA0004FB9414604F10C00FFF702FB074690B9FC
:103BB0006FF0020054E03B6998450DD03F68002F3C
:103BC000F9D1414604F10C00FFF7F2FA074600284C
:103BD000EED0236A3B60276297F817C006F01F08F3
:103BE000CCF3840CACEB08001FFA80FE0028B8BFB1
:103BF0000EF12000A8EB0C031FFA83FED7E9022187
:103C0000B8BF00B2002B0793BEBF0EF120031BB25A
:103C1000079352EA010338D0039BDFF824E39A1A92
:103C2000049B4FF0000C63EB010196457CEB010314
:103C30002BD36B7B97F81AE0734519D1029B002BAD
:103C400078D0012821DC7868F8B9DFF8F0C2944513
:103C500070EB010316D337E0276A27B96FF00C0029
:103C600013B0BDE8F08F3B699845B5D03F68F4E7E5
:103C7000B24890427CEB010301D30020F0E7029BA5
:103C8000002BFAD0079B0F2B17DCFA7DB30002F054
:103C9000030203F07C031343FB7539462046FFF70C
:103CA00007FB6B7BBB76029B3BB9FB7DC3F38402B6
:103CB000013262F38603FB75D0E76A7BBB7E9A42D2
:103CC000DBD1029B002B35D0B309022B32D0039BF2
:103CD000BB60049BFB60142200210DA8FDF79CFE35
:103CE000039B0A93049B0B932B1D0C932B7BADF82A
:103CF0003EB0013BDBB2ADF83C30069B8DF8423064
:103D0000059B8DF8433094F82C308DF840A083F05B
:103D100001038DF844308DF84180A3680AA920463C
:103D20009847FB7DC3F38403013303F01F039B0219
:103D3000FB82A2E7FB7DC6F34012B2EBD31F40F03B
:103D4000F480C3F38403434540F0F280029A2B7B56
:103D5000B609002A4DD0F2075DD4032B40F2EB8068
:103D6000039BBB60049BFB602B7BAE1D033BDBB264
:103D70003246394604F10C00FFF7ACFA00280CDAA1
:103D800039462046FFF794FAFB7DC3F384030133E1
:103D900003F01F039B02FB820AE7DDE90884AB887E
:103DA0003B834FF6FF73C9F12000A9F1200228FAE6
:103DB00009F104FA00F0014324FA02F21143184613
:103DC000C9B2FFF7C9F909F10809B9F1400F034673
:103DD000E9D1B8822A7B033AD2B23146FFF7CEF955
:103DE000FB7DB882DA43C2F3C01262F3C713FB75DE
:103DF00043E786B92E1D013BDBB23246394604F15A
:103E00000C00FFF767FA0028BADB2A7BB88A013A70
:103E1000D2B23146E2E7F98AC1F30901013B042934
:103E2000DAB25BD8281D002307F11B069A4208D995
:103E300010F801CB06F801C0013101330529DBB2CE
:103E4000F4D103990A9104990B91934207F11B0154
:103E50000C9138BF043379680D9134BF55FA83F360
:103E600000230E93FB8AADF83EB0C3F309031A4456
:103E7000069B8DF84230059B8DF8433094F82C302A
:103E8000ADF83C2083F001038DF8443000238DF819
:103E900040A08DF841807B602A7BB88A013A291DB9
:103EA000FFF76CF93B8BB882834203D1A3680AA960
:103EB0002046984720460AA9FFF702FEFB7DBA8AF2
:103EC000C3F38403013303F01F039B02FB823B8B8C
:103ED0009A420CBF00206FF01000C1E67B68002BF7
:103EE000AFD0052001E01C3033461E68002EFAD109
:103EF000091A081D2E1D184401EB090CBCF11B0FFB
:103F00005FFA89F39DD89A429BD916F8013B00F8D5
:103F1000013B09F10109EFE76FF00900A0E66FF03E
:103F20000A009DE66FF00B009AE66FF00D0097E631
:103F30006FF00E0094E66FF00F0091E640420F0024
:103F400080841E00EFF3098305494A6B22F00102C9
:103F50004A63683383F30988002383F31188704729
:103F600000EF00E0302080F3118862B60C4B0D4A60
:103F7000D96821F4E0610904090C0A43DA60D3F836
:103F8000FC20094942F08072C3F8FC200A6842F024
:103F900001020A602022DA7783F82200704700BF0E
:103FA00000ED00E00003FA05001000E010B530233A
:103FB00083F311880E4B5B6813F4006314D0F1EEA9
:103FC000103AEFF30984683C4FF08073E361094BCA
:103FD000DB6B236684F3098800F074FB10B1064B99
:103FE000A36110BD054BFBE783F31188F9E700BF20
:103FF00000ED00E000EF00E0430600084606000880
:10400000026843681143016003B11847704700001C
:10401000024A136843F0C003136070470048004031
:1040200013B50E4C204600F0B3FA04F114000C490D
:10403000009400234FF4807200F070F9094B0A4994
:1040400000944FF4807204F1380000F0E9F9074A57
:10405000074BC4E9172302B010BD00BF4C4F00202E
:10406000B84F002011400008B85000200048004020
:10407000007A030A30B5037C214C002918BF0C4696
:10408000012B0CD11F4B984209D11F4B9A6D42F462
:1040900080229A659A6F42F480229A679B6F226809
:1040A000036EC16D846603EB5203B3FBF2F36268E7
:1040B000150442BF23F0070503F0070343EA450355
:1040C000CB60A36843F040034B60E36843F0010317
:1040D0008B6042F4967343F001030B604FF0FF33A3
:1040E0000B62510505D512F0102205D0B2F1805FA8
:1040F00004D080F8643030BD7F23FAE73F23F8E72F
:10410000205600084C4F0020001002402DE9F047D7
:10411000C66D3768F46934622107054619D014F07A
:10412000080118BF4FF48071E20748BF41F0200139
:10413000A30748BF41F04001600748BF41F080013C
:10414000302383F31188281DFFF75AFF002383F3E0
:104150001188E2050AD5302383F311884FF480617A
:10416000281DFFF74DFF002383F311884FF030091E
:104170004FF0000A14F0200838D13B0616D54FF056
:10418000300905F1380A200610D589F31188504608
:1041900000F07AF9002836DA0821281DFFF730FFF1
:1041A00027F080033360002383F31188790614D548
:1041B000620612D5302383F31188D5E913239A427E
:1041C00008D12B6C33B11021281D27F04007FFF7D1
:1041D00017FF3760002383F31188E30618D5AA6E12
:1041E0001369ABB1BDE8F0475069184789F31188EE
:1041F000736A95F864102846194000F0E3F98AF3D1
:104200001188F469B6E7B06288F31188F469BAE7F7
:10421000BDE8F0874FF0E023002258684FF0FF31EF
:10422000930003F1604303F5614301329042C3F808
:104230008010C3F88011F3D27047000000F1604392
:1042400003F561430901C9B283F80013012200F0AC
:104250001F039A4043099B0003F1604303F5614348
:10426000C3F880211A607047F8B515468268066960
:10427000AA420B46816938BF8568761AB542044662
:104280000BD218462A46FDF7B5FBA3692B44A36160
:10429000A3685B1BA3602846F8BD0CD918463246BC
:1042A000FDF7A8FBAF1BE1683A463044FDF7A2FBDF
:1042B000E3683B44EBE718462A46FDF79BFBE368BF
:1042C000E5E7000083689342F7B51546044638BF1A
:1042D0008568D0E90460361AB5420BD22A46FDF74C
:1042E00089FB63692B446361A36828465B1BA36059
:1042F00003B0F0BD0DD932460191FDF77BFB01996A
:10430000E068AF1B3A463144FDF774FBE3683B4479
:10431000E9E72A46FDF76EFBE368E4E710B50A44D7
:104320000024C361029B8460C0E90000C0E905115C
:10433000C1600261036210BD08B5D0E90532934245
:1043400001D1826882B98268013282605A1C42615E
:104350001970D0E904329A4224BFC3684361002136
:1043600000F078FA002008BD4FF0FF30FBE70000B6
:1043700070B5302304460E4683F31188A568A5B1B5
:10438000A368A269013BA360531CA361157822694D
:10439000934224BFE368A361E3690BB120469847C9
:1043A000002383F31188284607E03146204600F0B9
:1043B00041FA0028E2DA85F3118870BD2DE9F74F44
:1043C00004460E4617469846D0F81C904FF0300A27
:1043D0008AF311884FF0000B154665B12A46314625
:1043E0002046FFF741FF034660B94146204600F0F2
:1043F00021FA0028F1D0002383F31188781B03B041
:10440000BDE8F08FB9F1000F03D001902046C847F6
:10441000019B8BF31188ED1A1E448AF31188DCE7A7
:10442000C0E90511C160C3611144009B8260C0E90D
:104430000000016103627047F8B504460D46164658
:10444000302383F31188A768A7B1A368013BA36059
:1044500063695A1C62611D70D4E904329A4224BF18
:10446000E3686361E3690BB120469847002080F35D
:10447000118807E03146204600F0DCF90028E2DA36
:1044800087F31188F8BD0000D0E905239A4210B5E2
:1044900001D182687AB98268013282605A1C8261D5
:1044A0001C7803699A4224BFC3688361002100F02D
:1044B000D1F9204610BD4FF0FF30FBE72DE9F74F53
:1044C00004460E4617469846D0F81C904FF0300A26
:1044D0008AF311884FF0000B154665B12A46314624
:1044E0002046FFF7EFFE034660B94146204600F044
:1044F000A1F90028F1D0002383F31188781B03B0C1
:10450000BDE8F08FB9F1000F03D001902046C847F5
:10451000019B8BF31188ED1A1E448AF31188DCE7A6
:10452000026843681143016003B1184770470000F7
:104530001430FFF743BF00004FF0FF331430FFF794
:104540003DBF00003830FFF7B9BF00004FF0FF3328
:104550003830FFF7B3BF00001430FFF709BF000089
:104560004FF0FF311430FFF703BF00003830FFF782
:1045700063BF00004FF0FF323830FFF75DBF00002F
:10458000012914BF6FF0130000207047FFF748BDEA
:10459000044B03600023C0E902334360012303742A
:1045A000704700BF3856000810B53023044683F327
:1045B0001188FFF75FFD02232374002080F3118828
:1045C00010BD000038B5C36904460D461BB904216F
:1045D0000844FFF7A5FF294604F11400FFF7ACFEDD
:1045E000002806DA201D4FF40061BDE83840FFF7CF
:1045F00097BF38BD00230375826803691B689968FB
:104600009142FBD25A680360426010605860704764
:1046100000230375826803691B6899689142FBD87F
:104620005A680360426010605860704708B50846D9
:10463000302383F311880B7D032B05D0042B0DD081
:104640002BB983F3118808BD8B6900221A604FF0E3
:10465000FF338361FFF7CEFF0023F2E7D1E9003299
:1046600013605A60F3E70000FFF7C4BF054BD96839
:104670000875186802681A60536001220275D860D4
:10468000FBF7CABFB851002030B50C4BDD684B1C9E
:1046900087B004460FD02B46094A684600F06CF9F3
:1046A0002046FFF7E3FF009B13B1684600F06EF968
:1046B000A86907B030BDFFF7D9FFF9E7B85100206E
:1046C0002D460008044B1A68DB6890689B68984286
:1046D00094BF002001207047B8510020084B10B54E
:1046E0001C68D86822681A60536001222275DC6059
:1046F000FFF78EFF01462046BDE81040FBF78CBF58
:10470000B8510020044B1A68DB6892689B689A4293
:1047100001D9FFF7E3BF7047B851002038B5074C07
:1047200007490848012300252370656000F01CFC40
:104730000223237085F3118838BD00BF2054002068
:1047400064560008B851002008B572B6044B1865CD
:1047500000F0D2FA00F08AFB024B03221A70FEE747
:10476000B85100202054002000F046B9EFF311802A
:1047700020B9EFF30583302282F3118870470000DF
:1047800010B530B9EFF30584C4F3080414B180F315
:10479000118810BDFFF7B6FF84F31188F9E7000018
:1047A0008B60022308618B82084670478368A3F1FF
:1047B000840243F8142C026943F8442C426943F8FC
:1047C000402C094A43F8242CC26843F8182C0222D2
:1047D00003F80C2C002203F80B2C044A43F8102C8D
:1047E000A3F12000704700BF31060008B851002037
:1047F00008B5FFF7DBFFBDE80840FFF735BF000055
:10480000024BDB6898610F20FFF730BFB8510020E2
:10481000302383F31188FFF7F3BF000008B501468A
:10482000302383F311880820FFF72EFF002383F342
:10483000118808BD064BDB6839B1426818605A60C0
:10484000136043600420FFF71FBF4FF0FF30704735
:10485000B85100200368984206D01A680260506080
:1048600099611846FFF700BF7047000010B5036854
:104870009C68A2420CD85C688A600B604C60216026
:10488000596099688A1A9A604FF0FF33836010BDAF
:104890001B68121BECE700000A2938BF0A2170B51B
:1048A00004460D460A26601900F058FB00F044FB50
:1048B000041BA54203D8751C2E460446F3E70A2EB6
:1048C00004D9BDE87040012000F08EBB70BD00002F
:1048D000F8B5144B0D46D96103F1100141600A2A65
:1048E0001969826038BF0A22016048601861A818FF
:1048F000144600F025FB0A2700F01EFB431BA342D1
:10490000064606D37C1C281900F028FB27463546AE
:10491000F2E70A2F04D9BDE8F840012000F064BB9B
:10492000F8BD00BFB8510020F8B506460D4600F0AE
:1049300003FB0F4A134653F8107F9F4206D12A46C5
:1049400001463046BDE8F840FFF7C2BFD169BB68F9
:10495000441A2C1928BF2C46A34202D92946FFF736
:104960009BFF224631460348BDE8F840FFF77EBF73
:10497000B8510020C851002010B4C0E9032300231F
:104980005DF8044B4361FFF7CFBF000010B5194C31
:10499000236998420DD0D0E90032816813605A60D3
:1049A0009A680A449A60002303604FF0FF33A361C2
:1049B00010BD2346026843F8102F536000220260A6
:1049C00022699A4203D1BDE8104000F0C1BA936851
:1049D00081680B44936000F0AFFA2269E169926844
:1049E000441AA242E4D91144BDE81040091AFFF765
:1049F00053BF00BFB85100202DE9F047DFF8BC805D
:104A000008F110072C4ED8F8105000F095FAD8F89D
:104A10001C40AA68031B9A423ED81444D5E90032D0
:104A20004FF00009C8F81C4013605A60C5F80090A8
:104A3000D8F81030B34201D100F08AFA89F3118816
:104A4000D5E9033128469847302383F311886B69F1
:104A5000002BD8D000F070FA6A69A0EB04094A452F
:104A600082460DD2022000F0BFFA0022D8F81030A2
:104A7000B34208D151462846BDE8F047FFF728BFAA
:104A8000121A2244F2E712EB090938BF4A462946B6
:104A90003846FFF7EBFEB5E7D8F81030B34208D040
:104AA0001444211AC8F81C00A960BDE8F047FFF7BC
:104AB000F3BEBDE8F08700BFC8510020B851002008
:104AC00000207047FEE70000704700004FF0FF3005
:104AD00070470000BFF34F8F024A1369DB03FCD419
:104AE000704700BF0020024008B5094B1B7873B91E
:104AF000FFF7F0FF074B5A69002ABFBF064A9A60CA
:104B000002F188329A601A6822F480621A6008BD45
:104B100038540020002002402301674508B50B4BA4
:104B20001B7893B9FFF7D6FF094B5A6942F0004250
:104B30005A611A6842F480521A601A6822F480524C
:104B40001A601A6842F480621A6008BD3854002066
:104B5000002002407F289ABF00F58030C00200206C
:104B6000704700004FF400607047000080207047DD
:104B70007F2808B50BD8FFF7EDFF00F5006302684A
:104B8000013204D104308342F9D1012008BD002054
:104B9000FCE700007F2810B504461FD8FFF79AFFF6
:104BA000FFF7A2FF0E4BF3221A6102225A615A69E3
:104BB00042EAC0025A615A6942F480325A61FFF7F0
:104BC00089FF4FF40061FFF7C5FF00F04BF9FFF7D5
:104BD000A5FF2046BDE81040FFF7CABF002010BD6A
:104BE000002002402DE9F84340EA020313F00703D6
:104BF000144606D0304B40F233321A600020BDE834
:104C0000F88385182D4A95420CD92B4A4FF44E71E2
:104C10001160F3E7031D1B684A68934208D1083C02
:104C200008300831072C14D902680B689A42F1D079
:104C3000FFF75AFFFFF74EFF214E08314FF00108F2
:104C40004FF00009012CA1F1080706D8FFF766FF15
:104C500001E0002CECD10120D1E7C6F81480054614
:104C600051F8083C45F8043B51F8043C4360FFF719
:104C700031FF336943F001033361C6F814900268D1
:104C800051F8083C9A420CD00B4B4FF458721A6002
:104C90000C4B18600C4B1C600C4B1F60FFF73EFF69
:104CA000ACE72D6851F8043C9D4201F10801EBD1BD
:104CB000083C0830C6E700BF345400200000040858
:104CC0000020024028540020305400202C540020A2
:104CD000084908B50B7828B11BB9FFF705FF012378
:104CE0000B7008BD002BFCD0BDE808400870FFF732
:104CF00015BF00BF3854002008B54FF4C0314FF045
:104D0000005000F0B1F8BDE808404FF480414FF08A
:104D1000805000F0A9B80000084600F0F3BB000086
:104D200070B582B0FFF722FD0E4E054600F004F983
:104D30003268904237BF0C4A0B49516814682EBF45
:104D4000D1E90041013151600419034641F10001EC
:104D5000284601913360FFF713FD0199204602B008
:104D600070BD00BF3C5400204054002070B582B09C
:104D7000FFF7FCFC104E054600F0DEF8326890426A
:104D800037BF0E4A0D49516814682EBFD1E9004162
:104D900001315160041941F1000103462846019197
:104DA0003360FFF7EDFC01994FF47A72002320463F
:104DB000FBF71EFA02B070BD3C54002040540020A6
:104DC0000244D2B2904200D17047431C800000F1EF
:104DD000804000F51450006841F8040BD8B2F1E7A8
:104DE000124B10B5D3F89040240409D4D3F8904066
:104DF000C3F89040D3F8904044F40044C3F8904086
:104E00000B4C2368024443F480732360D2B2904277
:104E100000D110BD431C800000F1804000F514500B
:104E200051F8044B0460D8B2F1E700BF0010024013
:104E30000070004007B5012201A90020FFF7C0FF64
:104E4000019803B05DF804FB13B50446FFF7F2FFC9
:104E5000A04205D0012201A900200194FFF7C0FF64
:104E600002B010BD7047000070470000704700009E
:104E7000074B45F255521A6002225A6040F6FF7203
:104E80009A604CF6CC421A60024B01221A707047AD
:104E9000003000404C540020034B1B781BB1034BE7
:104EA0004AF6AA221A6070474C5400200030004095
:104EB000054B1A6832B902F1804202F50432D2F889
:104EC00094201A60704700BF48540020024B4FF4F2
:104ED0000002C3F8942070470010024008B5FFF7A5
:104EE000E7FF024B1868C0F3407008BD485400202B
:104EF00070470000FEE700000A4B0B480B4A904247
:104F00000BD30B4BDA1C121AC11E22F003028B4288
:104F100038BF00220021FCF77FBD53F8041B40F886
:104F2000041BECE7D4570008D0540020D0540020D4
:104F3000D054002000F0C2B84FF08043586A704748
:104F40004FF08043002258631A610222DA607047F2
:104F50004FF080430022DA60704700004FF080433A
:104F600058637047FEE7000070B51B4B01630025D6
:104F7000044686B0586085620E46FEF7F3FF04F1E2
:104F80001003C4E904334FF0FF33C4E90635C4E924
:104F90000044A560E562FFF7CFFF2B460246C4E957
:104FA000082304F134010D4A256580232046FFF7CC
:104FB000F7FB0123E0600A4A0375009272680192D0
:104FC000B268CDE90223074B6846CDE90435FFF707
:104FD0000FFC06B070BD00BF2054002070560008C2
:104FE00075560008654F0008024AD36A1843D0621C
:104FF000704700BFB85100204B6843608B688360E6
:10500000CB68C3600B6943614B6903628B69436280
:105010000B6803607047000008B5204BDA6A42F065
:105020007F02DA62DA6A22F07F02DA62DA6ADA6C26
:1050300042F07F02DA64DA6E42F07F02DA66184AE2
:10504000DB6E11464FF09040FFF7D6FF02F11C01D6
:1050500000F58060FFF7D0FF02F1380100F58060B5
:10506000FFF7CAFF02F1540100F58060FFF7C4FFAB
:1050700002F1700100F58060FFF7BEFF02F18C01C4
:1050800000F58060FFF7B8FF02F1A80100F580602D
:10509000FFF7B2FFBDE8084000F050B80010024032
:1050A0007C56000808B500F0FBF9FFF737FBBDE8B8
:1050B0000840FFF7FDBE0000704700000F4B9A6DDF
:1050C00042F001029A659A6F42F001029A670C4A17
:1050D0009B6F936843F0010393604FF08043A722D6
:1050E0009A624FF0FF32DA6200229A615A63DA6004
:1050F0005A6001225A611A60704700BF00100240D6
:10510000002004E04FF0804208B51169D3680B40DD
:10511000D9B2C9439B07116107D5302383F31188A6
:10512000FFF722FB002383F3118808BD08B5FFF7C2
:1051300071F8BDE8084000F08BB900004E4B4FF00D
:10514000FF319A6A99629A6A00229A62986AD86ACA
:1051500060F07F00D862D86A00F07F00D862D86A19
:10516000186B1963186B1A63186B986B9963986BBB
:105170009A63986BD86BD963D86BDA63D86B186C69
:105180001964196C1A64196C196E41F001011966E1
:10519000D3F8801021F00101C3F88010D3F88010FB
:1051A000996D41F080519965996F21F0805199670F
:1051B000996F32494FF400408860CA600A624A62BF
:1051C0008A62CA620A634A638A63CA630A644A6477
:1051D0008A64CA640A654A654A604FF48072C1F8FD
:1051E00080204FF440720A604A6912F48062FBD159
:1051F000D3F8901011F4407F1EBF4FF48031C3F8F4
:105200009010C3F89020D3F8982042F00102C3F820
:105210009820D3F898209207FBD51A6842F4803280
:105220001A601A689003FCD5D3F8902022F003226C
:10523000C3F89020124ADA601A6842F080721A604D
:105240001A689101FCD50F490F4800229A60C3F8F3
:1052500088100E49C3F89C20016002684A4012077A
:10526000FBD19A6842F003029A609A6802F00C023D
:105270000C2AFAD1704700BF0010024000700040B5
:10528000132A610155010050002002400407040068
:10529000074A08B5536903F00103536123B1054A76
:1052A00013680BB150689847BDE80840FEF77EBE12
:1052B0000004014050540020074A08B5536903F028
:1052C0000203536123B1054A93680BB1D068984734
:1052D000BDE80840FEF76ABE0004014050540020BB
:1052E000074A08B5536903F00403536123B1054A23
:1052F00013690BB150699847BDE80840FEF756BEE8
:105300000004014050540020074A08B5536903F0D7
:105310000803536123B1054A93690BB1D0699847DB
:10532000BDE80840FEF742BE000401405054002092
:10533000074A08B5536903F01003536123B1054AC6
:10534000136A0BB1506A9847BDE80840FEF72EBEBD
:105350000004014050540020164B10B55C6904F461
:1053600078725A61A30604D5134A936A0BB1D06AC6
:105370009847600604D5104A136B0BB1506B9847E1
:10538000210604D50C4A936B0BB1D06B9847E2050C
:1053900004D5094A136C0BB1506C9847A30504D58A
:1053A000054A936C0BB1D06C9847BDE81040FEF7EE
:1053B000FDBD00BF0004014050540020194B10B542
:1053C0005C6904F47C425A61620504D5164A136D87
:1053D0000BB1506D9847230504D5134A936D0BB15B
:1053E000D06D9847E00404D50F4A136E0BB1506E90
:1053F0009847A10404D50C4A936E0BB1D06E984720
:10540000620404D5084A136F0BB1506F9847230408
:1054100004D5054A936F0BB1D06F9847BDE8104093
:10542000FEF7C4BD000401405054002008B50348F5
:10543000FEF76CFEBDE80840FEF7B8BD4C4F0020FB
:1054400008B5FFF75FFEBDE80840FEF7AFBD0000FE
:10545000062108B50846FEF7F1FE06210720FEF7F3
:10546000EDFE06210820FEF7E9FE06210920FEF7E1
:10547000E5FE06210A20FEF7E1FE06211720FEF7D1
:10548000DDFE06212820FEF7D9FE07211C20FEF7AD
:10549000D5FEBDE808400C212720FEF7CFBE000056
:1054A00008B5FFF743FE00F009F8FFF76FF8FFF7C4
:1054B00003FEBDE80840FFF73DBD00000023054A9C
:1054C00019460133102BC2E9001102F10802F8D18C
:1054D000704700BF505400200B460146184600F0AC
:1054E00003B8000000F00EB810B5054C13462CB1FF
:1054F0000A4601460220AFF3008010BD2046FCE7BB
:1055000000000000024B01461868FFF705BC00BF11
:105510002823002010B501390244904201D1002017
:1055200005E0037811F8014FA34201D0181B10BD0C
:105530000130F2E72DE9F041A3B1C91A177801440F
:10554000044603F1FF3C8C42204601D9002009E0CB
:105550000578BD4204F10104F5D10CEB0405D61821
:10556000A54201D1BDE8F08115F8018D16F801EDD5
:10557000F045F5D0E7E70000034611F8012B03F8EA
:10558000012B002AF9D170476F72672E6172647522
:1055900070696C6F742E54443130302D47342D4770
:1055A0005053000053544D333247343F3F00000006
:1055B00040A2E4F1646891060041A3E5F2656992B6
:1055C000070000004261642043414E496661636503
:1055D00020696E6465782E00000000000000000065
:1055E0008127000889220008452E00088122000832
:1055F0003123000815250008F9220008C1220008FF
:10560000C52200089D22000885220008D524000834
:10561000A92200087D2F0008B5220008A92400084F
:1056200000960000000000000000000000000000E4
:105630000000000000000000000000004D450008D0
:105640003945000875450008614500086D450008AA
:1056500059450008454500083145000881450008C6
:1056600063300000605600081052002020540020D3
:105670006D61696E0069646C650000000000802A3D
:1056800000000000AAAAAAAA00000024FFFF000050
:10569000000000000090090055000000000000001C
:1056A0006AAAAAAA15000000F7FF00000000000087
:1056B000000000000001A00400200000AAAAAAAA7D
:1056C00000015000FFFF0000000000000077000014
:1056D0000000000000000000AAAAAAAA0000000022
:1056E000FFFF0000000000000000000000000000BC
:1056F00000000000AAAAAAAA00000000FFFF000004
:105700000000000000000000000000000000000099
:10571000AAAAAAAA00000000FFFF000000000000E3
:10572000000000000000000000000000AAAAAAAAD1
:1057300000000000FFFF000000000000000000006B
:10574000E0AAFF7F010000001D040000000000002F
:105750000070030000000000FE2A0100D2040000D7
:10576000FF0000004C4F002000000000A45500087E
:105770002C230020000000000000000000000000BA
:105780000000000000000000000000000000000019
:105790000000000000000000000000000000000009
:1057A00000000000000000000000000000000000F9
:1057B00000000000000000000000000000000000E9
:1057C00000000000000000000000000000000000D9
:0457D00000000000D5
:00000001FF
